:020000040800F2
:1000000078090020E54700089F470008A14700083D
:1000100000000000000000000000000000000000E0
:10002000000000000000000000000000A5470008DC
:100030000000000000000000A7470008A9470008D2
:100040003F1D0008000000005B1E0008BF460008BE
:1000500093470008B3470008014800080348000818
:10006000000000000548000807480008094800088B
:100070000B480008B14700080D48000800000000C8
:100080000F480008000000000000000011480008B0
:100090000000000013480008154800081748000831
:1000A0000000000019480008000000001B4800087C
:1000B000F1B5A4B00E0014001D004A487844FF308A
:1000C000253003C822AA03C2049600200D9001E047
:1000D0000198241800206946488022AB0022D243B0
:1000E000210000A8801C01F044F90190012805DAE4
:1000F0002078411E8941C943C90F01916846408853
:100100002528019E00D1761E012E0EDB27003978AE
:100110000498249A90470490002800D1F4E20D98A6
:10012000401C0D907F1C761EF1D168464088252822
:1001300007D100200790089009900A900B900C902E
:1001400008E0684640880028C2D10D98DEE2010030
:1001500001200843641C21782029F8D023290ED0DF
:100160002B2904D02D2907D030290BD00DE0010018
:100170000220084380B2EDE701000420F9E7010006
:100180000820F6E701001020F3E72A290FD129689B
:1001900029600A68091D29600F92002A05D551427D
:1001A0000F9101000420084380B2641C12E000217A
:1001B0000F910AE00F9A7B4B9A4205D093009A1850
:1001C0005200511830390F91641C21780A00303ADE
:1001D0000A2AEFD321782E2906D00021C9430E9197
:1001E00021E000BFF0440000641C21782A2907D1D7
:1001F000296829600A68091D29600E92641C12E0B2
:1002000000210E910AE00E9A664B9A4205D09300A7
:100210009A185200511830390E91641C21780A0046
:10022000303A0A2AEFD302A9088726783100044819
:1002300078440C3001F0ABF8002803D0641C02E0D5
:100240009C440000002602A83A30067002A83A300A
:100250000078682804D12178682901D1622005E05E
:100260006C2807D120786C2804D1712002A93A317A
:100270000870641C12A806902678641C300025388B
:100280002AD01C3800D1D6E0001F022800D8D2E0C6
:10029000133800D1F6E0093800D1CCE0801E00D13F
:1002A0005EE1401E00D132E1401E022800D8C2E0CB
:1002B000001F00D12BE1401F00D18DE0401E00D176
:1002C000E0E0401E2FD0C01E0BD0801E00D1D9E030
:1002D000C01E00D1D6E066E101200790252012A9BA
:1002E0009FE002A83A3000786C282868286016D071
:1002F0000668001D286005960E9F002F03D530006C
:1003000001F04FF809E03A000021300001F051F807
:10031000002801D0801B00E0380008904FE10268FF
:10032000001D286038E1286828600268001D2860E8
:100330000020C0430021104002AA03C212A8059069
:10034000069B3C2602A803C8002904D1002802D13C
:100350000E9A002A14D0761E01960207120F303230
:10036000D2B23A2A00DB27329A5500090A07104315
:10037000090901D1002803D0059A9F19BA42EAD38E
:100380003C20801B0890991905910E9988420DDA3E
:10039000081A0A9002A8008F0349014002A80187A9
:1003A0000DE100BFFFFFFF7FEFFF0000002900D439
:1003B00005E102A93831097814220A40102A00D038
:1003C000FDE00F99079A891A0A9A891A0E1A012EC6
:1003D00000DAF4E00A96F2E002A83A3000786228E7
:1003E00019D0682806D06A280CD06C281BD0712838
:1003F00008D018E0286828600168001D28600D9862
:100400000880DCE0286828600268001D28600D98DC
:10041000C11703C2D3E0286828600168001D286066
:100420000D980870CBE0286828600168001D2860DE
:100430000D980860C3E02A68D21D072082432A6015
:1004400003CA2A6002AA03C2002903D5012007902B
:100450002D200CE002A8008F810703D50120079012
:100460002B2004E0C00704D501200790202012A90A
:10047000087012A8079940180590310002A800F0F2
:10048000AFFB9CE002A83A3002786C2A0BD0712AAC
:1004900001D06A2A07D12B68DB1D072083432B601C
:1004A00003CB2B6005E0296829600868091D2960D5
:1004B000002102AB03C3682A03D102A803C880B29B
:1004C0000BE0622A03D102A803C8C0B205E0742A77
:1004D00001D07A2A04D102A803C8002102AA03C2CB
:1004E00002A838300078000731D502A803C80029D7
:1004F00001D100282BD020203043782827D130206C
:1005000012A908700220079012A846701FE0290067
:1005100002A83A30007800F0FBF802AA03C202A851
:10052000002904DA0798411C07912D210DE0008F66
:10053000810704D50798411C07912B2105E0C007CE
:1005400005D50798411C0791202112AA115412A821
:10055000079940180590310002A800F0A7FA2EE094
:1005600002A83A3000786C2809D00120079028684A
:1005700028600168001D286012A801701FE028682B
:1005800028600168001D286068468180002001A95C
:100590004880C0430E9001AA02A9249800F0ECF80C
:1005A00000280CD5B0E001200790252012A9087082
:1005B000002E04D00798411C079112A90E540F98E1
:1005C0000799401A0A99401A0899401A0B99401A3B
:1005D0000999401A0C99401A019002A83830007805
:1005E000400711D4202069460870002609E0012345
:1005F0006A4602A9249800F0A4FE002800D083E0F7
:10060000761C01988642F2DB079F12AE0BE0317830
:100610000498249A90470490002875D00D98401CA7
:100620000D90761C7F1E002FF1D130206946087096
:100630000A9F002608E001236A4602A9249800F0D8
:1006400080FE002860D1761CBE42F4DB089F059E28
:100650000BE031780498249A90470490002853D0F6
:100660000D98401C0D90761C7F1E002FF1D130207C
:10067000694608700B9F002608E001236A4602A91C
:10068000249800F05EFE00283ED1761CBE42F4DBCA
:10069000099F0598089946180BE031780498249A28
:1006A0009047049000282FD00D98401C0D90761C88
:1006B0007F1E002FF1D13020694608700C9F002664
:1006C00008E001236A4602A9249800F03AFE0028B7
:1006D0001AD1761CBE42F4DB02A8383000784007FD
:1006E00000D4F7E4202069460870002600E0761C5C
:1006F0000198864200DBEDE401236A4602A92498B2
:1007000000F01FFE0028F2D00020C04325B0F0BD4D
:100710000A00622822D0682819D06A2808D06C28DC
:1007200023D0712804D074281FD07A2808D01CE068
:100730001368DB1D07208343136003CB13607047EE
:10074000116811600868091D116000217047116867
:1007500011600868091D116000B20BE0116811609A
:100760000868091D116040B204E011681160086852
:10077000091D1160C1177047F4B598B007000C004F
:10078000206B002800D50E48029000F01EFE616B21
:100790000818049009487844223003C806AA03C206
:1007A0003820205C400702D4049841280AD208A8C7
:1007B000039040200490002613E000BF283F000073
:1007C000FFFFFF7F00F006FE03900028F3D100201A
:1007D000C04369E11898801C189002980099401A4B
:1007E00002900298012800DAD1E006AA1898018840
:1007F00001A8401C00F04AFE0090002800D5DAE075
:1008000018980088002804D10098401E009000D558
:10081000D1E002980099884200DAB8E06069049952
:10082000009A8218914200D3A0E066634142206A98
:10083000081AA169401A616A401AE169401AA16A5E
:10084000401A05903820205C400711D420206946CA
:100850000871002509E0012301AA2100380000F0F9
:1008600070FD002800D0A6E06D1C05988542F2DBE3
:100870006669039D0BE02978A068B847A06000284E
:1008800000D198E0E06A401CE0626D1C761E002EEC
:10089000F1D1302069460871266A002509E001235C
:1008A00001AA2100380000F04CFD002800D082E0B1
:1008B0006D1CB542F3DBA669E5680AE02978A068FB
:1008C000B847A060002876D0E06A401CE0626D1C4A
:1008D000761E002EF2D1302069460871666A002526
:1008E00008E0012301AA2100380000F02AFD0028B9
:1008F00061D16D1CB542F4DBE669E068A169451879
:100900000AE02978A068B847A060002853D0E06AC0
:10091000401CE0626D1C761E002EF2D1302069462C
:100920000871A66A002508E0012301AA2100380009
:1009300000F007FD00283ED16D1CB542F4DB3820E5
:10094000205C400710D5202069460871002508E08A
:10095000012301AA2100380000F0F3FC00282AD16D
:100960006D1C05988542F3DB00266661009A01A99B
:10097000491C03986369C01800F094FD60690099F0
:100980004018606118980088002800D022E7606B4A
:100990006169401A216A401AA169401A616A401AC5
:1009A000E169401AA16A401A02903820205C400791
:1009B00011D400250CE00026F6436EE02021A0684B
:1009C000B847A0600028F6D0E06A401CE0626D1CC9
:1009D00002988542F2DB6369039A2100380000F037
:1009E000B0FC0028E7D1206A0090002509E0302102
:1009F000A068B847A0600028DDD0E06A401CE06233
:100A00006D1C00988542F2DBA369E2682100380082
:100A100000F097FC0028CED1606A0090002509E024
:100A20003021A068B847A0600028C4D0E06A401C0C
:100A3000E0626D1C00988542F2DBE369E068A16921
:100A400042182100380000F07CFC0028B3D1A06AD5
:100A50000090002509E03021A068B847A060002878
:100A6000A9D0E06A401CE0626D1C00988542F2DB70
:100A70003820205C40070ED5002509E02021A06821
:100A8000B847A060002896D0E06A401CE0626D1C68
:100A900002988542F2DB66616663039808A9884282
:100AA00001D000F02DFD300019B0F0BDF3B583B0DA
:100AB000006900906846027C6F2A01D1082406E094
:100AC00020211143782901D00A2400E010243C257C
:100AD000039803C806000F00642A01D0692A07D1D1
:100AE000002905DA00200021801BB94106000F0013
:100AF000002F12D1002E10D10398006B00280CD1CA
:100B0000082C3CD1039838300078000737D53B25B6
:100B1000302000993B31087031E06D1E01953000A6
:100B200039002200E31700F02FFD3032D2B23A2A0A
:100B300003DB6846007C513812180098425530009B
:100B400039002200E31700F01FFD06000F0001D15D
:100B5000002E05D00398C068009949198842DCD35B
:100B6000082C0CD1039838300078000707D500987E
:100B7000405D302803D06D1E3020009948553C2040
:100B8000401B0399886100994919039AD160039920
:100B9000096B884209DA081A039908620398008FE2
:100BA0000E4901400398018715E0002913D50399E8
:100BB0003831097814220A40102A0CD10399496B64
:100BC000039A5269891A039A126A891A0D1A012D19
:100BD00001DB0398056205B0F0BD0000EFFF0000E7
:100BE000F3B591B006AD03C802AA03C212A80078FB
:100BF00020210143009161290BD01198006B00283E
:100C000001D5062003E004D1672902D10120119902
:100C10000863119841684800400DAA4A904225D1C6
:100C2000080310D11198006800280CD103201199F5
:100C3000886112A8007861381A2842D32348784482
:100C40008A3000900BE003201199886112A8007887
:100C500061381A2831D31E4878447430009003223A
:100C600000991198C06800F01DFCF1E1012817DA25
:100C7000119800F0BEFC012812DB00270026009826
:100C8000612832D11198C06830210170401C411C8C
:100C9000119AD16012A9097861291FD178211EE02B
:100CA00011994968884A0A4088491143119A51604C
:100CB0008749461A0027FF43E1E706487844143085
:100CC000CCE7054878441030BBE700BF2C3A000061
:100CD000203A0000183A00001C3A00005821017028
:100CE00011984069801C11994861002F03D100249C
:100CF00068468780A2E10098612800D09FE01198A3
:100D0000046B002C01D5212400E0641C24B2601C7B
:100D10000090119803C804AA03C202A803C80022C5
:100D2000002300F088FC04A803C802D28022120627
:100D3000514002AA03C2301F6946888000270F76FF
:100D400006AE761C00E0F61D0098012830DB02A8F4
:100D500003C80022002300F087FC29D21C2102A82E
:100D600000F0B0FC02A803C800F03AFD05000098AE
:100D7000C01F009001280ADB280000F05FFD020080
:100D80000B0002A803C800F0D0FD02AA03C2F61DA2
:100D9000072004E0761E2907090F31702D11012D5F
:100DA00001DB401EF6D5401ECDD4761E3770FAE723
:100DB00006A8401C311A06AD6D1CA14200DA0C00D9
:100DC00024B2200032D4884205DA06A909184978ED
:100DD000082900DB0F2706A9091801E0641E491E37
:100DE000401E0A78BA42F9D00F2F04D106A909187B
:100DF0004A78521C4A70002806D506AD641C01983A
:100E000000B2001D6946888024B2601E0ED42918E5
:100E10000A783032D2B23A2A03DB12AB1B783A3B63
:100E2000D2180A70401E491E0028F1D51198006B97
:100E3000002800D402E1601E11990863FEE002A8B8
:100E400003C80022002300F0F6FB06D202A803C864
:100E500080221206514002AA03C236B27D48704376
:100E60007D4900F0EFFD694688800720019909B2AD
:100E7000421A00207949012A20DB049202AA30CAD2
:100E800000260F000498C00707D532003B00200061
:100E9000290000F031FE04000D0004984010049079
:100EA0003000390032003B0000F026FE06000F0043
:100EB00004980028E6D102A830C028E05442002659
:100EC000674F18E0FF070000FFFF0F800000E03FC2
:100ED000FE030000E00707D504A803C832003B006A
:100EE00000F00AFE06000F00641004A803C804AA5C
:100EF0000CCA00F001FE04AA03C2002CEAD102A829
:100F000003C832003B0000F0B9FE02AA03C20098F9
:100F1000662803D1019800B20A3000E0062011993A
:100F2000096B08180490142801DB1320049030206A
:100F30006946087606AC641C049801283ADB02A8CE
:100F400003C800F05FFC05000834042628000A21CD
:100F500000F07BFD0F0028000A2100F076FD05005F
:100F6000641E303727700A2100F06FFD0F00280043
:100F70000A2100F06AFD0500641E30372770761ED6
:100F8000E4D108340498083804900128D4DB02A87E
:100F900003C800F037FC00F05BFC02000B0002A865
:100FA00003C800F0C2FC00222E4B00F0A5FD02AAEF
:100FB00003C2C4E706A8401C201A06AD6D1C6A4691
:100FC00005E0401E019909B2491E91806D1C2978E7
:100FD0003029F6D00099662903D1019909B2491C3C
:100FE00004E0652901D1012100E00021119A126B72
:100FF000541824B2A04200DA040024B221001DD407
:10100000814204DA685C352801DB392000E03020B9
:101010006A1800E0641E521E491E13788342F9D0FC
:10102000392802D1685C401C6854002906D56D1E21
:10103000641C019800B2401C69468880019800B287
:10104000009023B22A0012A80178119800F00CF841
:1010500013B0F0BD97750000A08601000000244089
:101060000000F03F84D79741F3B589B015001C000C
:1010700000F07FFE0190406A007869460872099886
:10108000076B012C01DA0124ADA50AA80178202004
:101090000843109E662801D1761C18E0672800D00E
:1010A0009FE036B20321C9438E4200DA9DE0BE4282
:1010B00000DB9AE0761C099838300078000702D4EB
:1010C000BC4200DA270036B2BF1B00D500270998C2
:1010D000C06800900998806900990918019136B29A
:1010E000012E2CDA401C3021019A1170012F04DAF4
:1010F000099938310978090704D56946097A009AAF
:101100001154401C099988617042874200DA7E427E
:1011100036B2704209994862BF19A74200DA3C0012
:1011200024B20998C461220029000098099B9B6998
:10113000C01800F0B7F9381B09998862E1E0B442A1
:1011400020DA22002900019800F0ACF90999896998
:101150000919099A9161301B099A5062012F04DA2A
:10116000099838300078000709D56846007A099A4E
:10117000D26850540998C069401C0999C8610998FF
:101180008762BEE032002900019800F08BF90998CF
:1011900080698019A41B012F04DA09993831097874
:1011A000090705D56946097A099AD2681154401C85
:1011B0000999886124B2A74200DA3C0024B22200D7
:1011C000A9190998C068099B9B69C01800F06AF9C1
:1011D00009988069001909998861381B0999486242
:1011E0008FE0612914D1702015E0BC4205DA09991D
:1011F00038310978090700D427007F1E00D5002761
:101200000AA80078672801D1652004E0452002E0A3
:10121000412902D150200AA9087009988169481C07
:10122000099AD26800922A78009B5A54691C012FAF
:1012300007DA099A38321278120702D409998861BC
:101240001BE06A46127A009B1A54401C099A90616E
:10125000012F12DB641E24B2A74200DA3C0024B244
:101260002200009B181800F01DF9099880690019E8
:1012700009998861381B099948620998C0680999D9
:10128000896945180AA8007828706D1C36B23000AC
:1012900003D42B2028706D1C03E02D2129706D1CB8
:1012A0004642002405AF08E00A2203A800F07CFDB6
:1012B00004983870039E641C7F1C31B20129F3DA54
:1012C000022C08DA0AA8007820210143652902D1FE
:1012D000302028706D1C002C09D1302028706D1C26
:1012E00007E0641E05A8005D303028706D1C012CDD
:1012F000F7DA0998C068099989694018281A099984
:10130000C86109983830007814210140102914D19F
:10131000099840690999896940180999496A4018EA
:101320000999C96940180999896A40180999496B4E
:10133000884202DA081A099908620BB0F0BD000071
:10134000300079B50E0014001D00002005E0F06AA1
:10135000401CF0620020641C6D1E002D08D0217816
:10136000B068009A9047B0600028F0D10020C043D8
:1013700076BDF8B504000F0015001E0000F024FD36
:1013800033002A003900200000F032FDF2BDC9B25E
:1013900000E0401C02788A4202D0002AF9D10020E5
:1013A0007047010000E0491C0A78002AFBD1081AA6
:1013B0007047C9B201E0401C521E002A03D00378D6
:1013C0008B42F8D170470020704780B500F0FCFCDC
:1013D000012002BD70B505002C000F3407208443A6
:1013E000C046C046A54233D2082C04D2082402E0ED
:1013F000083000F085F82448026811000CD1011D66
:101400000A68002A20D01368A34212D2111DF7E700
:101410001D68A5420DD2191D0B68002BF8D112686A
:10142000011D00E0191D0B6893420DD01D68A542F7
:10143000F8D300290CD00D682A681300083BA3429A
:101440000AD26A680A600FE000F0F0FC0028CFD1F1
:10145000C046C046002070BD2B190B606E685E60F0
:10146000121B0B681A602C600968002904D04A68B6
:10147000002A01D0091D00E000210160C046C046DD
:101480000835280070BD00006405002070B5040018
:101490000D00160000F098FC32002900200000F03A
:1014A0009DFC70BD124207D08B0706D00B78491CFB
:1014B0000370401C521EF7D87047830706D00B7884
:1014C000491C0370401C521EF9D1704770B4103A89
:1014D00003D378C9103A78C0FBD2530701D318C997
:1014E00018C001D508C908C0D20704D30B880380EF
:1014F000891C801C002A01D50B78037070BC7047D2
:10150000002800D1704738B5083804002068082842
:1015100036D3400734D1C046C0461A484168002936
:1015200001D08C4203D26160446019E019004B681D
:10153000002B01D0A342F9D30B68CD18AC421DD3C8
:10154000A54204D122689A180A600C0008E04A6893
:10155000002A03D02368E3189A420FD362604C60DC
:10156000616800290AD02268A3188B4206D10023A3
:10157000036008681018206048686060C046C04674
:1015800031BD000064050020124224D0994228D9C0
:1015900070B500251B4202D00C00002109E0002498
:1015A000012649186441944200D3A41A7641F8D325
:1015B0003100012601E0764109D2001864416D41F5
:1015C000A41A9D41F7D2A4185D41B619F5D3300095
:1015D00022002B0070BD1B42D8D108B500F03CFCA6
:1015E00008BD01D19042D3D202000B00002100209F
:1015F000704730B401004B68802212061A40012067
:101600001B031B0B4B600BD10B68002B08D10DE0AB
:101610000B686400DD0F25434D605B000B60401ECE
:101620004C68E302F4D523031B0B4B604B681A4351
:101630004A6030BC704730B4012464054D00EC4270
:101640000BD85D00EC4208D80C001C436400044336
:10165000144304D2994200D1904230BC7047FCD070
:101660008B42FAD18242F8E730B4012464054D0080
:10167000EC420BD85D00EC4208D80C001C4364001F
:101680000443144304D28B4200D1824230BC7047E1
:10169000FCD09942FAD19042F8E730B401210022FF
:1016A0000368001D002B0BD00468001D0C4202D003
:1016B0004D466D1E64192260241D1B1FF0D0FAE7F1
:1016C00030BC704770B504000D0060684000400DEC
:1016D0003F4EB04207D16068000302D12068002865
:1016E00016D0022070BD002804D12000FFF781FF32
:1016F00001286BDA012D0DDB311A8D420AD36068A7
:10170000002802D50020334901E00020310503C440
:10171000012070BD4142A942616806DA2E4A0A40A2
:10172000281800051043606047E08022120611402F
:1017300062681203120B80235B0313436360401E35
:101740002D1800202A003532352A02D3616020602E
:1017500070BD00221E23DB439D4204DA203522683F
:10176000636823606060684211D0521E9241D24388
:10177000D20F20231B1A25689D402A432568C540A7
:1017800066689E402E4326606368C340636060685D
:10179000084360601148824206D2802000068242DF
:1017A0000ED12078C0070BD52068401C206020682F
:1017B000002805D16068401C60600020C04370BDF7
:1017C00060688842F9D120680028F6D1002070BDF9
:1017D000FF0700000000F0FFFFFF0F800100008006
:1017E000F4464A1805D200F00FF801D580174008DA
:1017F000604700F009F80121C907884200D90800B4
:10180000404260474A1812D2400DC90208430121E4
:10181000C9070843520D40210901521A521C06D42F
:1018200052421F3201D4D0407047C0177047002089
:1018300070470268531C036011707047010009D59E
:10184000F446404200F006F80122D20711436047F7
:10185000010000BF42221201D21E004207D002D472
:10186000521E0018FCD5C10A4005120589187047A0
:101870008B4200D1824205D98446100062468C46D4
:1018800019006346DF184C18640D7F0D3AD0661CB2
:10189000760537D0E61B352E34DCDB022B43DB0A22
:1018A0000C0DC9022943C912202E0DDB1700203E62
:1018B00006D01F00F741F3405F400026012A774120
:1018C000C01871410DD217E01700F741F2405740A0
:1018D000F3415A40B340F3405A4000268018594122
:1018E0000AD3A21C52050FD0C207012F7241170064
:1018F0004008CB0718434908641C24054208AF413F
:1019000070416141F0BC7047641C21050020F9E77B
:101910006B4010E06B40ABE7F742F3D1E943F1E7EE
:101920002442EFD100200021ECE7F0B40125ED07BF
:101930000F005F40EED40C00871A9C4105D2C01BFB
:10194000A141D219634169406B40AE0ADF184C18BF
:10195000F442E1D2640D7F0DE2D0E61B362ED1DCDD
:10196000DB022B43DB0AA4460C0DC9022943C90A3A
:10197000012E28DC04D1D6075208DF073A435B0862
:10198000EF0A76429041994114D039423BD1B619C1
:1019900040414941761C394204D1761C0018494126
:1019A0003942FAD0B9436746B74208D9A41B240587
:1019B0002143A7E70042EAD13642E8D1A2E7E40A90
:1019C000E10700209EE7202E0BDD203E1F00F340A4
:1019D000F7415F40012A002257417E4298419141E0
:1019E0000BE01700F741F2405740F3415A40B34033
:1019F000F3405A407E42904199410A0303D2641E4B
:101A0000B619404149410027641E24054208AE41F1
:101A100078416141F0BC7047F446002804D4494243
:101A200000F013F8404260474042002905D45FD0DF
:101A300000F00BF8404249426047494200F005F887
:101A40004942604703460B43E6D40022030A8B4217
:101A50000BD203098B4219D243088B422ED2411A72
:101A600000D20146524110467047FF2209023FD082
:101A700012068B4205D3121209028B4201D31212B5
:101A8000090203098B4219D300E0090AC3098B42FA
:101A900001D3CB01C01A524183098B4201D38B0180
:101AA000C01A524143098B4201D34B01C01A524123
:101AB00003098B4201D30B01C01A5241C3088B4268
:101AC00001D3CB00C01A524183088B4201D38B0053
:101AD000C01A524143088B4201D34B00C01A5241F5
:101AE000884200D3401A5241CFD201461046704777
:101AF00008B500F0B3F908BDF0B50E005E40012551
:101B0000ED072E40B446AE0ADF184C18F44208D256
:101B1000F7420ED2640D01D07F0D12D10020614634
:101B2000F0BD05D1F74201D87F0D05D10020C1439A
:101B3000F0BDFBD1640DF9D00020C143490549082F
:101B40008FE0E419C902DB0229432B43DB0A460D6F
:101B5000C00231438E4630B487B295B27D432E0C1D
:101B6000ADB2140C7C43A419260C240425439CB26A
:101B70007C43A419190C7943270CC919A4B20F048A
:101B80003C43090C000C97B247432E0CBE19354359
:101B9000ADB2170C4743360CBF19A6B2BF193E04AD
:101BA0003543240C3E0C36199FB24743BF19BCB2D3
:101BB0003E0C89191F0C47437F183E043443390CEF
:101BC000704680B297B247432E0CBE193543ADB272
:101BD000170C4743360CBF19A6B2BF193E04354354
:101BE000240C3E0C36199FB24743BF19BCB23E0CC1
:101BF00089191F0C47437F183E043443390C77463C
:101C00003F0C90B278432E0C80190604ADB22E43DF
:101C1000050CA0B22D18120C7A435019020C80B298
:101C2000240CA4189AB27A43121914042043120CFB
:101C300089181B0C7B43C91830BCEF0A394203D109
:101C4000B61940414941641E6F12BF0DE41B0BDB06
:101C5000FF19BC4211DA240500274208AE41784141
:101C6000614166463143F0BD641C05D1401C6141B1
:101C7000CF0201D34908F4E750E75DE7F0B40E0066
:101C80005E400125ED072E40B446AE0ADF184C1821
:101C9000F4423BD2F74241D2640D43D07F0D38D09D
:101CA000E41BC902DB0229432B43CF0ADB0A0600EF
:101CB000B61A9F4104D2641EB6197F41B6185F411F
:101CC0006812800D24180018844222DAE80C0021E2
:101CD000B6197F41B61A9F4102D2B6185F413F1C28
:101CE00040414941F4D3241C21DD2405B6197F412C
:101CF000B61A9F4105D33743C60737430026012F45
:101D00007041614166463143F0BC7047FCD1F742F7
:101D100005D20020C14349054908F3E704D000205B
:101D2000C143F1E77F0DFAD000206146ECE7244281
:101D3000FAD1401C61410F03F6D30020E2E7FEE731
:101D400080B5124800F08BF811A1016041608160FC
:101D5000C1600161416181610EA242628162C16222
:101D6000016341630CA282630DA2C26301644164FA
:101D700001BD10B5054800F072F804002068002885
:101D800001D1FFF7DDFF200010BD000000000020A2
:101D9000000000002E00000066616C73650000000A
:101DA00074727565000000007CB504000E0015001B
:101DB00030002900FFF746FE00904543701B01905C
:101DC000684603C803C476BD80B5034800F047F8F1
:101DD000806902BD0000000090000020002804D1AE
:101DE0000EA003C803C20020704701700120704795
:101DF000002904D10BA003C803C300207047002AA8
:101E000002D10120C0437047002801D00A78028027
:101E10000978481E8041C043C00F70470000000091
:101E200000000000000000000000000007490868F2
:101E3000002801D000207047054807229043086021
:101E400004499143091A0160704700BF70050020E2
:101E50007F090020780B00207047FEE7704770472D
:101E60000000000000000000000000000000000072
:101E7000000000000000000000000000000003005F
:101E80000000030000000300000003000000030046
:101E90000000030000000300000003000000030036
:101EA0000000030000000300000003000000030026
:101EB00000000300FCFFFFFFFCFFFFFF000003002A
:101EC0000000030000000300000003000000030006
:101ED00000000300000003000000030000000300F6
:101EE00000000300000003000000030000000300E6
:101EF00000000300000000000000000000000000DF
:101F000000000000000000000000000000000000D1
:101F100000000000000000000000000000000000C1
:101F200000000000000000000000000000000000B1
:101F300000000000000000000000000000000000A1
:101F40000000000000000000000000000000000091
:101F50000000000000000000000000000000000081
:101F60000000000000000000000000000000000071
:101F70000000000000000000000000000000000061
:101F80000000000000000000000000000000000051
:101F90000080070000C01F0000E01F0000F01F00CD
:101FA00000B00F00003000000030000000300000E2
:101FB0000060000000E0000000C00100008003009D
:101FC00000000E00000018000000000000000000EB
:101FD0000000000000000000000000000000000001
:101FE00000000000000000000000000000000000F1
:101FF00000000000000000000000000000000000E1
:1020000000000000000000000000000000000000D0
:1020100000000000000000000000000000000000C0
:1020200000000000000000000000000000FEFF00B3
:1020300000FEFF0000FEFF0000FEFF0000FEFF00AC
:102040000000000000000000000000000000000090
:102050000000000000000000000000000000000080
:102060000000000000000000000000000000000070
:102070000000000000000000000000000000000060
:102080000000000000000000000000000000000050
:102090000000000000000000000000000000000040
:1020A0000000000000000000000000000000000030
:1020B0000000000000000000000000000000000020
:1020C0000000000000000000000000000000000010
:1020D0000000000000000000000000000000000000
:1020E00000000000000000000000000000000000F0
:1020F00000000000000000000000000000000000E0
:1021000000000000000000000000000000000000CF
:102110000000070000800F0000800F0000800F000B
:1021200000000700000000000000000000000000A8
:102130000003000000070000000600000006000089
:10214000000E0000000C0000000C0000001C00004D
:1021500000180000001800000038000000300000E7
:10216000003000000070000000600000006000000F
:1021700000E0000000C0000000C0000000C001003E
:1021800000800100008001000080030000000300C7
:102190000000030000000700000006000000060029
:1021A00000000E0000000C0000000C0000001C00ED
:1021B0000000180000001800000038000000300087
:1021C00000003000000070000000600000006000AF
:1021D0000000E0000000C00000000000000000005F
:1021E000000000000000000000C0070000F01F0019
:1021F000003C7800001EF000000FE0000007E00146
:102200008007C0038003C003C0038007C0038007AA
:10221000E003800FE003800FE001800FE001000F7A
:10222000F001001FF001001FF001001FF001001F6E
:10223000F001001FF001001FF001001FF001001F5E
:10224000F001001FF001001FF001001FF001001F4E
:10225000E001000FE003000FE003800FE003800FB8
:10226000C0038007C00380078007C0038007C00346
:102270000007C001000FE001001EF000007C7800A4
:1022800000F03F0000C00F00000000000000000050
:1022900000000000000000000000000000600000DE
:1022A00000E0010000E0070000E01F0000E07F0008
:1022B00000E0C70000E0030000E0030000E00300CE
:1022C00000E0030000E0030000E0030000E0030082
:1022D00000E0030000E0030000E0030000E0030072
:1022E00000E0030000E0030000E0030000E0030062
:1022F00000E0030000E0030000E0030000E0030052
:1023000000E0030000E0030000E0030000E0030041
:1023100000E0030000E0030000E0030000E0030031
:1023200000E0030000E0030000E0030000E0030021
:1023300000E0030000F0070000FF7F000000000045
:10234000000000000000000000000000000000008D
:1023500000C01F0000F87F0000FCFF0100FEFF032B
:1023600000FFC007807F0007801F000EC01F000C09
:10237000C00F0008C00F0018C0070010C007000001
:10238000C0070000C00700008007000080070000B1
:10239000000F0000000F0000000E0000001E0000F3
:1023A000001C000000380000003800000070000031
:1023B00000E0000000C001000080010000000300F8
:1023C0000000060000000C000000180000003000B3
:1023D000000060001000C00020008001E000000349
:1023E000E0FFFF07C0FFFF0FC0FFFF1F80FFFF3FA1
:1023F00000000000000000000000000000000000DD
:102400000000000000C01F0000F07F0000FCFF0083
:1024100000FCFF0100FEC003003F0007001F000694
:10242000001F000C000F0000000F0000000E000055
:10243000000E0000000E0000001C0000001800004C
:10244000003000000060000000F8010000FC070000
:1024500000FE3F0000FF0100807F0000801F0000A1
:10246000C00F0000C0070000C0070000C007000048
:10247000C0030000C0030000C00300008003000090
:10248000800300008007000000070000000E00002D
:10249000001C000F0078E01F00F0FF1F00C0FF0FBE
:1024A0000000FE0700000000000000000000000027
:1024B0000000000000000000001E0000001E0000E0
:1024C000003E0000007E0000007E000000FE0000D4
:1024D00000BE010000BE0100003E0300003E0300FC
:1024E000003E0600003E0C00003E0C00003E1800BE
:1024F000003E3800003E3000003E6000003EE0003C
:10250000003EC000003E8001003E8003003E00030C
:10251000003E0007003E000E003E000C003E001C86
:10252000003E0018F0FFFF3FF0FFFF3FF0FFFF3FCE
:10253000003E0000003E0000003E0000003E0000A3
:10254000003E0000003E0000003E0000003E000093
:10255000003E0000003E00000000000000000000FF
:10256000000000000000000000000000000000006B
:10257000E0FF0F00C0FF0F00C0FF1F0080FF1F0023
:1025800080FF3F000000300000006000000060009D
:102590000000C0000000C0000000F8010000FF01C2
:1025A00000C0FF0300F0FF0300F8FF0700FC3F003E
:1025B00000FE030000FF0000007F0000801F0000FD
:1025C000800F0000C00F0000C0070000C00700001F
:1025D000C0030000C0030000C0030000C0030000EF
:1025E000800300008003000080030000000700005B
:1025F00000060000000E0000003C000F00F8C00FB5
:1026000000E0FF0F0080FF070000FE010000000057
:1026100000000000000000000000000000000000BA
:10262000E0070000003F000000F8000000E00300A9
:102630000080070000000F0000001E0000003C00AA
:1026400000007C000000F8000000F0010000F00134
:102650000000E0030000E00300F8C10700FECF0720
:1026600000FFDF0F803FF80FC01FE00FE00F801F5B
:10267000E007801FE007801FF003001FF003001F2A
:10268000F001001FF001001FF001001FF001001F0A
:10269000F001001FF001000FE001800FE001800F4A
:1026A000C0018007C003C0078003C0038007E001AA
:1026B000000FF000003E7C0000F83F0000E00F003B
:1026C000000000000000000000000000000000000A
:1026D0000000000000000000F0FFFF01F0FFFF031A
:1026E000F0FFFF03F0FFFF03E0FFFF07E0008007BC
:1026F000E001000EC001000CC0010018C003001072
:1027000080030000800300000007000000070000B5
:1027100000070000000E0000000E0000000E000088
:10272000001C0000001C0000003C000000380000FD
:102730000038000000780000007000000070000009
:1027400000E0000000E0000000E0000000C0010028
:1027500000C0010000C001000080030000800300F1
:1027600000800700000007000000070000000F00C5
:1027700000000E000000000000000000000000004B
:10278000000000000000000000F00F0000FC3F000F
:10279000001FF800800FF001C007E001C003C00374
:1027A000E003C007E003C007E003C007E003C00781
:1027B000E003E007C003E007C007F003800FF80361
:1027C000000FFC01001EFE010038FF0000F07F003A
:1027D00000E03F0000F01F0000F80F0000FE1F00A7
:1027E00000FF710080FFF000C03FE001E01FC00368
:1027F000E00FC007F0078007F003800FF003800FA1
:10280000F001800FF001800FF001800FE001C007A0
:10281000E001C007C003E0038007F001001FF800DB
:1028200000FE7F0000F00F0000000000000000002C
:1028300000000000000000000000000000E00F00A9
:1028400000F83F00007CF000001EE001000FC00314
:1028500080078003C0078007C003000FE003000F5C
:10286000E003000FE003001FF001001FF001001F54
:10287000F001001FF001001FF001001FF001801F98
:10288000F001801FF001800FF003C00FF003E00F94
:10289000E007F007E03FF803E0F7FF01C0E7FF00C3
:1028A000C0073F00800F0000800F0000001F0000E5
:1028B000001F0000003E0000003C00000078000007
:1028C00000F0000000E0010000C0030000800700ED
:1028D00000001E000000F8000000C00F0000000013
:1028E00000000000000000000000000000000000E8
:1028F00018FE013C98FF0766F8C71F42F8013F42E7
:10290000F8007C4278007C427800F8663800F03CA1
:102910003800F0011800F0011800E0031800E0038F
:102920000800E0070800C0070000C0070000C0075B
:102930000000C0070000C0070000C00F0000C00F6B
:102940000000C00F0000C00F0000C00F0000C00F4B
:102950000000C00F0000C0070000C0070000C00753
:102960000000C0070000E0070000E0070400E003EB
:102970000C00F0031C00F0011800F8013000F80111
:102980003000FC0070007E00E0017F00C0FF3F00CF
:1029900000FF0F0000FE0700000000000000000024
:1029A0000000000000000000000000000000000027
:1029B0000000000000000000000000000000000017
:1029C0000000000000000000000000000000000007
:1029D00000000000000000000000000000000000F7
:1029E00000000000000000000000000000000000E7
:1029F00000000000000000000000000000000000D7
:102A000000000000000000000000000000000000C6
:102A100000000000000000000000000000000000B6
:102A200000000000000000000000000000000000A6
:102A30000000000000000000000000000000000096
:102A40000000000000000000000000000000000086
:102A50000000000070B582B00400002C01D10120FC
:102A600070E22078C00775D5AC4800680C210140A1
:102A700004290ED0A94800680C210140082911D171
:102A8000A648006880214902084080214902884206
:102A900008D1BA48006880035CD56068002859D125
:102AA00001204FE26068012807D1B4480068802106
:102AB00049020143B14801602DE0606800280CD153
:102AC000AE480068AE490140AC480160AB480068C0
:102AD000AC490140A94801601DE0606805280ED19D
:102AE000A64800688021C9020143A4480160A348A8
:102AF0000068802149020143A04801600BE09F4823
:102B000000689F4901409D4801609C4800689D49BC
:102B100001409A480160606800280DD000F04DFB2C
:102B2000060096480068800314D400F046FB801B22
:102B30006528F6D3032005E200F03FFB06008F482E
:102B40000068800306D500F038FB801B6528F6D3AB
:102B50000320F7E12078800721D5704800680C2118
:102B60000140002909D06D4800680C210140082966
:102B70002FD16A480068C0032BD4804800688007C2
:102B800004D5E068012801D00120DBE17B48006822
:102B9000F82188432169C900014378480160207801
:102BA00000075FD5E069002848D0B94800680121D6
:102BB0000143B748016000F000FB0600B44800681C
:102BC00080074FD400F0F9FA801B0328F6D30320C6
:102BD000B8E1E06800281DD0684800680121014381
:102BE0006648016000F0E9FA060064480068800762
:102BF00006D400F0E2FA801B0328F6D30320A1E1FB
:102C00005E480068F82188432169C90001435B4898
:102C10000160C4E7594800680121884357490860AA
:102C200000F0CBFA0600554800688007B7D500F0E1
:102C3000C4FA801B0328F6D3032083E1944800687C
:102C4000012188439249086000F0B7FA06009048D5
:102C50000068800706D500F0B0FA801B0328F6D381
:102C600003206FE12078400700D496E00025B648A5
:102C70000068C0000ED4B4480068802149050143B3
:102C8000B1480160B04800688021490508400090C3
:102C900000980125AD480068C00514D4AB48006811
:102CA000802149000143A948016000F086FA06002E
:102CB000A6480068C00506D400F07FFA801B65288E
:102CC000F6D303203EE1A068012806D1A0480068A1
:102CD000012101439E4801602EE0A06800280CD12C
:102CE0009B4800680121884399490860984800681A
:102CF00004218843964908601EE0A06805280FD18A
:102D0000934800680421014391480160904800689D
:102D1000012101438E4801600EE000BF0410024013
:102D20008B48006801218843894908608848006809
:102D30000421884386490860A06800280ED000F06E
:102D40003CFA06008248006880071DD400F035FA7E
:102D5000801B80498842F5D30320F3E000F02DFA70
:102D600006007B48006880070ED500F026FA801B1D
:102D700078498842F5D30320E4E000BF0010024008
:102D8000FFFFFEFFFFFFFBFFEDB2012D05D16E48F7
:102D90000068714901406C4801602078C00625D563
:102DA0006069012844D16D480068042101436B48E3
:102DB00001606A480068012101436848016000F031
:102DC000FCF9060065480068800706D400F0F5F9B4
:102DD000801B0328F6D30320B4E060480068F82184
:102DE0008843A169C90001435C480160206A00284A
:102DF00000D1A6E0A84800680C210140082900D1B4
:102E000083E0206A02286CD1A4480068A4490140EC
:102E1000A248016000F0D1F90600A04800688001D6
:102E200038D500F0CAF9801B0328F6D3032089E0C7
:102E300060690421C94388420FD1484800680421D1
:102E400088434649086045480068F8218843A169DD
:102E5000C900014341480160C8E7404800680421B7
:102E600001433E4801603D480068012188433B49D9
:102E7000086000F0A2F90600384800688007B5D560
:102E800000F09BF9801B0328F6D303205AE000BF13
:102E900024100240A24800680F218843E16A0143E0
:102EA0009F4801607C4800687E490140A06A084351
:102EB000616A0143784801607848006880214904CC
:102EC00001437648016000F078F906007348006815
:102ED000800136D400F071F9801B0328F6D303205B
:102EE00030E06E4800686E4901406C48016000F0B7
:102EF00064F9060069480068800122D500F05DF998
:102F0000801B0328F6D303201CE0206A012801D18E
:102F1000012017E060480068814909688022520258
:102F20000240636A9A420AD10907090FE26A914294
:102F300005D1F02189030140A06A814201D001201E
:102F400000E0002076BD00001C1002400070004030
:102F50002010024089130000FFFFFFEF34100240F1
:102F600070B505000C00002D01D1012093E06D48E3
:102F700000680100C907C90FA1420FD26948006863
:102F800001218843204367490860664800680100C2
:102F9000C907C90FA14201D001207CE02878800731
:102FA00011D52878400706D53B480068E021C900C4
:102FB00001433948016038480068F0218843A96816
:102FC0000143354801602878C00732D56868012878
:102FD00005D132480068800310D401205BE06868A6
:102FE000022805D12D480068800107D4012052E055
:102FF0002A480068800701D401204CE02648006878
:1030000003218843696801432348016000F0D5F833
:103010000600214800680C21014068688000814258
:1030200007D000F0CAF8801B3F498842F1D3032043
:1030300031E03C4800680100C907C90F8C420FD23B
:1030400038480068012188432043364908603548E4
:1030500000680100C907C90FA14201D001201AE090
:103060002878400707D50C48006830490140E868D7
:1030700008430949086000F017F82D49064A12680C
:1030800012091207120F895CC8402A490860002003
:1030900000F06AF8002070BD0410024000100240E9
:1030A000FFFFFFFEFFFFC2FF30B589B004A8234930
:1030B0001022FEF70BFA684621491022FEF706FAA5
:1030C000002100220023002400201B4D2D68290030
:1030D0000C250D40042D02D0082D02D01CE019480B
:1030E0001BE004A80A00920C1207120F845C6846C9
:1030F0000B4A12681207120F825CC80307D51148E9
:1031000000210023FEF740FA0300634302E023009E
:103110000D484343180000E00A4809B030BD0000E4
:103120002C1002400020024089130000FFF8FFFF2E
:10313000D44700080801002004100240B4470008EA
:10314000C447000800127A0000093D0080B52448F9
:1031500000681021014322480160002000F004F8BB
:1031600000F048F8002002BD10B50400FA208000ED
:103170001C490978FEF769FC01001B480068FEF74E
:1031800064FC00F0F7F8002801D001200CE0042CCA
:1031900009D2002221000020C04300F0E6F81348C5
:1031A0000460002000E0012010BD114800680D49B6
:1031B000097840180E49086070470D48006870474C
:1031C00038B50500FFF7F9FF0400FF2D02D20548CE
:1031D00000782D18FFF7F1FF001BA842FAD331BD8C
:1031E000002002400C010020080100200401002002
:1031F0006C05002081B02B4800680121014329485B
:103200000160284800680100C907C90F00910098B3
:1032100025490968802252050A4323490A60224948
:1032200009688022520511400091009901B0704751
:1032300010B586B0040001A8142100F0C1F8206880
:103240001A4988422BD11A4800688021890201431B
:1032500017480160164800688021890208400090E4
:10326000009CC020C0000190122002900120039019
:10327000032004900420059001A99020C00500F0CF
:10328000A1F80948006880218903014306480160CC
:10329000054800688021890308400090009806B026
:1032A00010BD0000181002401C10024000540040E5
:1032B00014100240F0B540B200281CD42F4A40B28E
:1032C00003009B0804246343D258FF238407A40F00
:1032D00008256C43A3409A438901C9B283079B0F19
:1032E0000824634399401143244A40B280080423D0
:1032F0005843115020E0224B40B20207120F083A07
:103300009208042462431E4C40B205072D0F083D6D
:10331000AD08042675436459FF258607B60F0827B4
:103320007E43B540AC438901C9B28007800F0825B0
:103330006843814021439950F0BD80B5411E8022F1
:103340005204914201D301200EE0401E0D49086055
:1033500003210020C043FFF7ADFF00200A490860A9
:1033600007200A490860002002BD80B540B2FFF77F
:10337000A1FF01BD80B5FFF7E0FF02BD00E400E062
:103380001CED00E014E000E018E000E010E000E0D8
:10339000130030B414001500103902D310393CC0AA
:1033A000FCD2490700D30CC000D504C0890002D369
:1033B0000280801C002900D5027030BC70470000DC
:1033C0000022E5E7F8B5002236E005241500AD0738
:1033D000AD0F04277D43AC403443260034006C4FCE
:1033E0001500AD080426754326007E51694C2668F9
:1033F0009E434C68E40300D51E43664C2660664C31
:1034000026689E434C68A40300D51E43624C266088
:10341000624C26689E434C68E40200D51E435F4C14
:1034200026605F4C26689E434C68A40201D5334356
:103430001E005B4B1E60521C0B68D340002B00D15A
:10344000A5E00C68012393402340002BF3D04C6887
:10345000012C08D04C68022C05D04C68112C02D0ED
:103460004C68122C1AD186680324150002277D436C
:10347000AC40A643CC68150002277D43AC403443E2
:1034800026008660466801249440A64335004C68B7
:103490002600F606F60F96402E434660C6680324C3
:1034A000150002277D43AC40A6438C681500022717
:1034B0007D43AC4034432600C6604C68022C02D0E9
:1034C0004C68122C1CD11400E40804256C43041928
:1034D000266A0F2415006D076D0F04277D43AC404D
:1034E000A6430C6915006D076D0F04277D43AC40A2
:1034F000344326001400E40804256C4304192662B2
:1035000006680324150002277D43AC40A6430C79CE
:10351000A407A40F150002277D43AC4034432600C6
:1035200006604C68E40086D51E4C246801252543BE
:103530001C4C25601B4C24682500ED07ED0F009501
:10354000009C134D1600B60804277E43AE590F2782
:10355000BC461500AD07AD0F04277D436746AF405D
:10356000BE439025ED05A84201D100242EE70E4C64
:10357000A04201D1012429E70C4CA04201D1022430
:1035800024E70B4CA04200D01FE703241EE7F1BD47
:103590000800014000040140040401400804014007
:1035A0000C040140181002400004004800080048C4
:1035B000000C004810B50400002C01D101205EE091
:1035C0004120205C002805D10020402160542000CB
:1035D000FFF72EFE2420412160542068006801215D
:1035E00088432168086060682549014020680161BE
:1035F000206880682349014020688160E0680128D4
:1036000006D1A0688021090201432068816005E09D
:10361000A06884210902014320688160E0680228D3
:1036200003D1802000012168486020684068164965
:103630000143206841602068C06812490140206849
:10364000C160206961690143A069000208432168E3
:10365000C860E069216A0143206801602068006851
:103660000121014320680160002060642020412185
:10367000605400202063002042342070002010BDE0
:10368000FFFFFFF0FF7FFFFF00800002FEB582B06A
:1036900004004120205C202800D0C5E00A9E002EB6
:1036A00003D00B9DADB2002D04D18020800060645A
:1036B0000120BAE04020205C012801D10220B4E0C2
:1036C000012040216054FFF778FD0700009719237F
:1036D000012280210902200000F0FFF8002801D01B
:1036E0000120A2E021204121605440204221605469
:1036F0000020606466626585002060630C9D019710
:1037000000956846038A68468289684601892000D8
:1037100000F090F8002804D00020403420700120F0
:1037200083E0608DFF280DD9FF20208500200090C8
:1037300080235B04228DD2B268460189200000F00C
:103740008FF90CE0608D20850020009080239B0481
:10375000228DD2B268460189200000F081F93A003A
:103760002900200000F0E4F8002801D001205CE0EE
:10377000606A007821688862606A401C6062608DBF
:10378000401E6085208D401E2085608D00282BD036
:10379000208D002828D100972B00002280212000B6
:1037A00000F09BF8002801D001203EE0608DFF284A
:1037B0000DD9FF2020850020009080235B04228DFE
:1037C000D2B268460189200000F04AF90CE0608D11
:1037D00020850020009080239B04228DD2B2684671
:1037E0000189200000F03CF9608D0028B7D13A0033
:1037F0002900200000F0C7F8002801D0012014E0C3
:1038000020202168C861206840680949014020687B
:10381000416020204121605400204221605400205A
:1038200040342070002000E0022005B0F0BD000010
:1038300000E800FEF8B5060014001D001C480090CA
:1038400080235B042A00D2B289B2300000F008F96C
:10385000079F3A000699300000F06AF8002801D06E
:10386000012024E0ADB2012D03D1E4B230688462BE
:1038700011E0200080B2000AC0B2316888623A00CC
:103880000699300000F054F8002801D001200EE025
:10389000E4B2306884620097069B002280213000E9
:1038A00000F01BF8002801D0012000E00020F2BD4C
:1038B0000020008000B501688969890702D50021D0
:1038C0000268916201688969C90705D4016889693C
:1038D00001220A430068826100BDF4B504000F00B4
:1038E0001D00069E206880693840B84201D1012041
:1038F00000E0002069460978884217D1FF2DF1D0F9
:10390000FFF75BFC801B854201D3002DEAD1606C80
:103910002021014361642020412160540020422184
:103920006054002040342070012000E00020F2BDEF
:1039300070B504000D00160020688069800720D44F
:1039400032002900200000F047F8002801D00120B3
:1039500018E0FF2DF0D0FFF730FC801B854201D32B
:10396000002DE9D1606C20210143616420204121B8
:103970006054002042216054002040342070012017
:1039800000E0002070BD70B504000D001600206836
:10399000806980061ED432002900200000F01CF847
:1039A000002801D0012016E0FFF707FC801B8542AC
:1039B00001D3002DEBD1606C2021014361642020F4
:1039C0004121605400204221605400204034207086
:1039D000012000E0002070BD70B504000D0016004D
:1039E00020688069C00639D520688069800617D4B0
:1039F000FF2DF9D0FFF7E1FB801B854201D3002D9D
:103A0000F2D1606C20210143616420204121605487
:103A100000204221605400204034207001201EE02C
:103A200010202168C86120202168C8612000FFF7AC
:103A300041FF206840681549014020684160606C82
:103A4000042101436164202041216054002042216F
:103A50006054002040342070012000E0002070BD40
:103A6000F0B4049C05686D682600760D084F374356
:103A7000BD4389B28905890D2943D2B212040A4394
:103A800013431C4300684460F0BC704700E800FE2C
:103A9000FF63FF03704701B584B0642002900120EA
:103AA000019004A800900123002278218F48FFF79D
:103AB000EDFD002801D0002000E0012005B000BD90
:103AC000E0B56422029289B2019100900123402264
:103AD00078218648FFF7DAFD002801D0002000E0B9
:103AE00001200EBD10B50400FFF7D4FF6420FFF7DE
:103AF00067FB002000F003FA2020FFF7CCFF002036
:103B0000FFF7C9FFB020FFF7C6FFC820FFF7C3FFCC
:103B10000020FFF7C0FF1020FFF7BDFF4020FFF798
:103B2000BAFFFF2000F0E0F9A120FFF7B4FFA620C4
:103B3000FFF7B1FFA820FFF7AEFF3F20FFF7ABFF75
:103B4000A420FFF7A8FFD320FFF7A5FF0020FFF771
:103B5000A2FFD520FFF79FFFF020FFF79CFFD920A1
:103B6000FFF799FF2220FFF796FFDA20FFF793FF78
:103B70001220FFF790FFDB20FFF78DFF7020FFF78B
:103B80008AFF8D20FFF787FF1420FFF784FF0120B5
:103B900000F0B5F9E4B2002C04D0002000F00CF8DD
:103BA00000F01DF800206E49088000206C49488014
:103BB00001206B49487110BD80B5002103E0FF2250
:103BC0004B4B5A54491C8022D200914204D2C0B2BD
:103BD0000028F4D10022F3E700F001F801BD10B590
:103BE000002400E0641CE4B2082C22DA20005038E3
:103BF000C0B2FFF750FF002801D100201AE00020DA
:103C0000FFF749FF002801D1002013E01020FFF743
:103C100042FF002801D100200CE080213448E4B2AA
:103C2000802262438018FFF74BFF0028DAD1002082
:103C300000E0012010BDF8B506000C00F6B2802EA1
:103C400002DAE4B2402C00DB4DE045480079002860
:103C500005D0D2B2002A01D1012200E00022D2B266
:103C6000012A20D1F6B2E4B220000821FDF7EAFED5
:103C70008021484330181E4D0090F6B2E4B2200077
:103C80000821FDF7DFFE80214843301818490E5CFB
:103C90000127E4B220000821FDF7D4FE8F4037430E
:103CA00000982F541FE0F6B2E4B220000821FDF77F
:103CB000C9FE8021484330180D4D0090F6B2E4B2A1
:103CC00020000821FDF7BEFE802148433018084936
:103CD0000E5C0127E4B220000821FDF7B3FE8F40FF
:103CE000BE4300982E54F1BD0000000010050020D6
:103CF00010010020F9B581B00E0068460079F6B2D7
:103D0000B0422CD068460079002802D1F6B2002ECD
:103D100001D0012000E00020D2B2002A03D1684681
:103D2000007A002801D0012000E000201500089F43
:103D30000DE03A00D2B22900C9B22000C0B2FFF7AC
:103D40007AFF641CE4B2F6B2B442F2D36D1C68464A
:103D5000007AEDB2854202D268460479F2E7F7BDF7
:103D60005C050020FEB50700FFB238002B38112893
:103D700001D3002058E03D48008869460978401882
:103D8000812806DA39484088694649784018412830
:103D900001DB002048E0002500E06D1C684640780B
:103DA000854238D20198FFB239002B396A465278E1
:103DB0005143491904225143465800240EE0002281
:103DC000D2B22A48408829004118C9B22748008841
:103DD0002300C018C0B2FFF72EFF641C68460078AD
:103DE0008442DAD23000A04000280ED56846027A1C
:103DF0001E48408829004118C9B21C480088230089
:103E0000C018C0B2FFF717FFE7E76846007A00283E
:103E1000D5D10122D4E715480088694609784018B1
:103E2000124908803800C0B2FEBDF8B504000E008B
:103E300017001D0000E0641C207800280CD02B0027
:103E4000DBB231003A002078FFF78CFF2178C0B256
:103E50008842F0D0207800E02078F2BDC0B2034A5A
:103E60001080C9B201484180704700005C05002005
:103E7000FDB582B00F00049800B2C01D0821FDF707
:103E8000E1FD694608800024002601E0761C7F1CC5
:103E90000A9800B236B2864224DA002519E036B21A
:103EA000009C24B274432DB228000821FDF7CAFDFE
:103EB000201803990C5C20060AD50BA8027839005B
:103EC000C9B2029800B22B00C018C0B2FFF7B3FE0F
:103ED0006D1C049800B22DB28542D7DA6807DED097
:103EE0006400E8E705B0F0BD10B504008120C0B261
:103EF000FFF7D1FD2000C0B2FFF7CDFD10BD80B5AA
:103F0000C0B2002804D0AF200121054A917103E01E
:103F1000AE200021024A9171C0B2FFF7BCFD01BD85
:103F20005C0500200000001FFE00000000000003F0
:103F3000FFFFE000000000000FFFFFFC000000009A
:103F4000003FFFFFFF0000000000FFFFFFFFC00079
:103F5000000003FFFFFFFFE000000007FFFFFFFF7F
:103F6000F80000001FFFFFFFFFFC0000003FFFFF05
:103F7000FFFFFE0000007FFFC000FFFF000000FF0A
:103F8000FE00001FFF800001FFF8000007FFC000D7
:103F900001FFE0000003FFE00003FFC0000000FF9E
:103FA000F00007FF800000007FF00007FE00000027
:103FB000043FF8000FFC0800000E1FFC001FFC1C53
:103FC00000001F0FFC001FF83E00003F87FE003F6F
:103FD000F07F00007F87FE003FF07F8000FF03FE40
:103FE000003FE03FC000FE03FF003FE01FE001FE96
:103FF00001FF007FC00FF003FC01FF007FC007F846
:1040000007F800FF807FC003FC0FF000FF807F8077
:1040100001FE1FE000FF80FF8000FF3FC000FF8027
:10402000FF80007FFF80007F80FF80003FFF000057
:104030007F80FF80001FFE00007F80FF80000FFC5C
:1040400000007F80FF80000FF800007F80FF80006D
:104050001FFC00007F80FF80003FFE00007F80FF8C
:1040600080007FFF00007F80FF8000FF7F80007F57
:1040700080FF8001FE3FC000FF807F8003FC1FE0C7
:1040800000FF807FC007F80FF000FF807FC00FF0B7
:1040900007F801FF007FE01FE003FC01FF003FE0A5
:1040A0003FC001FE03FF003FE03F8000FF03FE0032
:1040B0003FF07F80007F83FE001FF8FF00003F0776
:1040C000FE001FF87E00001E0FFC000FFC3C0000ED
:1040D0000C1FFC000FFE180000001FF80007FF0077
:1040E0000000003FF80007FF80000000FFF0000321
:1040F000FFC0000001FFE00001FFF0000003FFC06F
:104100000000FFFC00000FFFC000007FFF00007FE9
:10411000FF8000003FFFF003FFFF0000001FFFFFD4
:10412000FFFFFE0000000FFFFFFFFFF80000000789
:10413000FFFFFFFFF000000001FFFFFFFFE00000B6
:1041400000007FFFFFFF80000000001FFFFFFE0058
:104150000000000007FFFFF8000000000000FFFF64
:10416000800000001FB50024FEF7F0FF00F046F8C5
:1041700000F085F80120FFF7B5FC0020FFF71CFDDB
:10418000012001904020009041237B4A0021202003
:10419000FFF76EFEFFF723FDFA208000FFF710F80F
:1041A0000020FFF709FDFA208000FFF709F8012041
:1041B00001900E2000900923704A00210020FFF793
:1041C00057FEFFF70CFDFA208000FEF7F9FF0020F4
:1041D000FFF7F2FCFA208000FEF7F2FF002202A9AE
:1041E000200000F081F8641CFA204000FEF7E8FF90
:1041F0000B2C00DB0024FFF7F2FCEFE700B595B0D5
:1042000008A83021FFF7DCF868461021FFF7D8F83E
:1042100004A81021FFF7D4F80220089001200B9089
:1042200010200C900220109000201190802000039C
:1042300012900020139008A8FEF70CFC002801D073
:1042400000F051F807200090022001900020029019
:104250000020039000216846FEF782FE002801D06E
:1042600000F041F8202004900020079004A800F0FE
:1042700091F8002801D000F036F815B000BD80B5E7
:104280003F484049086040483E49486000203D4959
:10429000886001203B49C86000203A49086100203D
:1042A0003849486100203749886100203549C86194
:1042B0000020344908623348FFF77CF9002801D018
:1042C00000F011F800212F4800F004F9002801D077
:1042D00000F009F800212B4800F02EF9002801D049
:1042E00000F001F801BD7047F0B583B007000D0084
:1042F000160000243A0025A1280000F053F92800F8
:10430000FDF74FF80400E4B2052C01DB002031E09A
:104310008020E4B21E216143401A0221FDF792FB86
:104320006946087100200090402300226846017908
:104330000020FFF7DFFC3100C9B268460079FFF7C3
:104340008DFD0123124803C80A0001002800FFF771
:104350006CFD002000904023002280218C4668469E
:104360000179E4B21E20604308186146C0B2FFF72D
:10437000C1FC0120FEBD0000243F0008504700089A
:1043800000540040100500200B02000025640000CE
:10439000FC00002070B582B00400002500202168D8
:1043A000C9036ED5002643480068C0000ED44148BA
:1043B00000688021490501433E4801603D4800688E
:1043C0008021490508400090009801263A4800687D
:1043D000C00514D43848006880214900014336489C
:1043E0000160FEF7EAFE050033480068C00506D408
:1043F000FEF7E3FE401B6528F6D3032058E02F4864
:104400000168C02080000840002829D06168C022CF
:1044100092000A40904223D028480168284808406A
:1044200026490968802252020A4324490A60234926
:104430000968244A0A4021490A6020490860C007E7
:104440000ED5FEF7BAFE05001C480068800707D4A9
:10445000FEF7B3FE401B1C498842F5D3032027E03A
:10446000164800681649014060680843134908600F
:10447000F6B2012E05D10F480068144901400D48DD
:1044800001602078C00707D51148006803218843E0
:10449000A16801430E4801602078800607D50C48CA
:1044A000006810218843E168014309480160002049
:1044B00076BD00001C100240007000402010024039
:1044C000FFFCFFFFFFFFFEFF89130000FFFFFFEF70
:1044D0003010024000B54122825C202A2AD14022BD
:1044E000825C012A01D1022025E001224023C2542E
:1044F00024224123C2540268126801239A430368AC
:104500001A6002681268254B134002681360026843
:1045100012681143026811600168096801220A43A8
:1045200001680A602021412281540021403001703D
:10453000002000E0022000BD00B54122825C202A5C
:1045400029D14022825C012A01D1022024E00122EB
:104550004023C25424224123C2540268126801231A
:104560009A4303681A600268126813000C4A1A40E2
:1045700013000A021A4301680A60016809680122EF
:104580000A4301680A602021412281540021403001
:104590000170002000E0022000BD0000FFEFFFFFDF
:1045A000FFF0FFFF0CB41CB5040004A801900094B8
:1045B00001AB0A006946084878441C30FBF778FDD7
:1045C0000021009A1170002801D40098001B02B04D
:1045D000019910BC03B008475BD2FFFF816807E078
:1045E0000268116851185368CB18C3600832026022
:1045F000C2689142F4D04A1C826008787047F0B5D6
:1046000087B001000831029102685208D20089186F
:10461000039100250495059501684908C9004418CF
:10462000083440686946C307DB0F4B704008C00080
:1046300020180190002735E002A8FFF7CFFF46B20F
:104640000AE00298016840180490029949684018ED
:104650000590029808300290049805998842F0D09D
:10466000411C0491007869460870BD4210D1019840
:10467000844201D100F01EF8256868464078002881
:1046800001D048462D1860682F180834BD42EED07E
:104690006846007828706D1C002E08D5761CE4D181
:1046A000BD42C9D101988442C6D107B0F0BD761E83
:1046B000D2D5F5E780B5012000F002F801BDFEE794
:1046C00080B5C046C046024A11001820ABBEFBE7C9
:1046D000260002000000000000000000686A6C7400
:1046E0007A4C000000000000000000006E616E00C7
:1046F0004E414E00696E6600494E460010B50749AE
:1047000079441831064C7C44163404E0081D0A68CC
:10471000891888470100A142F8D110BD08000000A7
:104720003000000077CFFFFF64040000100100207C
:1047300000000000CBFEFFFF0200000002000000AE
:10474000DE0000001D000000000000200D01000040
:1047500008001C003E007F00FF801C001C001C00A5
:104760001C001C001C001C001C001C0000F00BF8AE
:10477000002801D0FFF7C2FF0020C046C046FFF767
:10478000F1FC00F002F80120704780B500F002F85B
:1047900001BDFEE707463846FFF792FFFBE770478B
:1047A00000B5FEE77047704780B5FEF7FEFC01BD1F
:1047B0007047FEE702030405060708090A0B0C0D03
:1047C0000E0F10100102030405060708090A0B0C5E
:1047D0000D0E0F1000000000000000000102030495
:1047E0000607080901488047014800471D4800089E
:1047F000F5470008C046C046C046C046FFF7B6FFB2
:10480000FEE7FEE7FEE7FEE7FEE7FEE7FEE7FEE780
:10481000FEE7FEE7FEE7FEE7FEE7FEE77047E4009F
:10482000F8FFDC00FAFF8100D100081E2D000060B7
:0B4830001E000804FC0003127A0001C7
:04000005080047F5B3
:00000001FF
